:040000000200313297
:03000B00020BB82D
:0100130032BA
:01001B0032B2
:03002300020BD0FD
:03002B00020BCCF9
:20008A007546007547007548007552007553807554517555017556007557007558D8755924
:2000AA0000E4F55AF55BF55CF55DF55ED200D201C202C203C204C205C206C207C208C209DC
:1500CA00C20AC20BC20CC20DC20EC20FC210C211C21202002EA1
:03002E000201715B
:2000DF00A9827E007F007D00E7FC700302016CC3ED950E400302016C0DEFC454F0CEC4CE2E
:2000FF006ECE54F0CE6EFFC374B98CF063F08095F04016ECFA3395E0FBEA24D0FAEB34FF8D
:20011F00FBEA2EFEEB3FFF80BFC374C68CF063F08095F04016ECFA3395E0FB74C92AFA74C2
:20013F00FF3BFBEA2EFEEB3FFF809DC374E68CF063F08095F04091EC3395E0FB74A92CFC79
:20015F0074FF3BFBEC2EFEEB3FFF0200E78E828F83227F00D213D214C215757A007D00AC30
:20017F00D974BF5CF5D9C007C005120C36C284C290D281D2821219C7908000E4F5F0121A14
:20019F004175821C121A75121A8D75820C121AA0D2AF750A01750E00750F0875100090009E
:2001BF004A75F040121B2975A70FAB8EE4CB25E0CB33CB25E0CB33FCE58D23235403FA7E74
:2001DF0000900007EA2BF0EE3CA3F08EA712194775E3C0120DB3C285D281AEF174F95EF51D
:2001FF00F1120CD7D005D0077401B55F028003020298AC6FAE70EC4E7008BCFF05BE000239
:20021F008002D209200910E57904F579C007C00512188ED005D007856353856454E4F555C3
:20023F00F556E5532553F553E55433F554E55533F555E55633F556C3E49553E49554E49562
:20025F0055E495565002D203C007C005120D24D005D007A200E433FEBE0110758208C0076D
:20027F00C005120D64D005D007800E758207C007C005120D64D005D007E4F55FF5ECE50B1B
:20029F00601D750B00C007C0051219C7908000E4F5F0121A4175821C121A75D005D007E539
:2002BF000A70030208E1750A00300902D29020040BC007C005120D24D005D007AE5F8E0452
:2002DF00BC000302076EBE010280030208E13004030205CEC20BA200201301B3402CA2002A
:2002FF009213E433FEBE0111758208C007C005120D64D005D007020447758207C007C005C4
:20031F00120D64D005D00702044720060302040A900001E0FEE06073900003E024FFFBA3B3
:20033F00E034FFFC900003EBF0ECA3F0900003E0F5F0A3E045F06028900005E024FFFBA3D4
:20035F00E034FFFC900005EBF0ECA3F0AC4ABC08028008BC07028003020447C20702044791
:20037F00EE14900001F0AE4ABE0702800FBE0816900003742CF07401A3F0800A90000374F5
:20039F0084F07403A3F0D207020447900005E4F0A3F0900003E0FCA3E0FEC3EC9410EE94D9
:2003BF000E501990000374012CF0E43EA3F0AB4ABB08028003BB0719C2078015BC1012BEBC
:2003DF000E0F900003E4F0A3F0D207900002E014F0900002E07051C207D210C206C203909D
:2003FF0000037420F074FDA3F0803D30103AAE4ABE07028003BE0830900003E024FFFCA3AF
:20041F00E034FFFE900003ECF0EEA3F0900003E0F5F0A3E045F06004C207800C90000374EC
:20043F0020F074FDA3F0D207300360E5534554455545567043856353856454E4F555F55673
:20045F00E5532553F553E55433F554E55533F555E55633F556758210C007C005120D64D07A
:20047F0005D0077401B56B23758201C007C005120D64D005D0078013155374FFB5530C157F
:20049F0054B554071555B555021556A201201401B34064A201921420023E20015AA200E41F
:2004BF0033FEBE0113D202758201C007C005121768D005D0070D803F20003C200A39200ECC
:2004DF0036757A007D00C20275820FC007C005120D64D005D007801F20011CA200E433FE43
:2004FF00BE0114BD0300500F758201C007C005121768D005D0070D300202057ABD0300406A
:20051F0047200102D20DA201E433FEBE013A757A007D00A200E433FEBE011C75820FC007F7
:20053F00C005120D5775820D120D64D005D007E577FE04F577801120000E75820FC007C018
:20055F0005120D57D005D007A201E433FEBE01147F00C20A300D06C20EC20D804720004472
:20057F00C20E804020012FA200E433FEBE0127300D240FBF0B2E7D008D7A758201C007C074
:20059F000512176875820F120D57758206120D64D005D007800E20010B2000087F00C20AD1
:2005BF00C20EC20D3002030208E1D2830208E12004030208E1E55A455B600CE55AB55C0769
:2005DF00E55BB55D02800EC3742A955C7402955D40030208E1E4F55AF55BF55CF55DC00745
:2005FF00C005120DB3750E00750F2075100090002675F040121B29D005D007C205E4F54854
:20061F00F546E54AFE7003020760BE0D03020760BE0603020760055E74FD255E500302075D
:20063F004DD2127402B55E0280030208E1D292200902C290C28C438E04750E64750F009072
:20065F00D026C007C005120CF1D005D007300C0BAE6CBE0A005004EE04F56CE56D456E70F9
:20067F0019E56C24FF5013AC65AE668C6D8E6EC007C00512188ED005D007C007C005120DB6
:20069F0053AC82AE83D005D007E558FA3395E0FBC3EA9CEB64808EF063F08095F05011C0F4
:2006BF0007C005120D53AC82AE83D005D0078C58C007C005120D4CD005D007200908740A9C
:2006DF00B56C1E300C1BD29075570A750E02750F0090D026C007C005120CF1D005D00780D7
:2006FF0037300C34E56C75F005A4FCAEF0AA577B00C3EA9CEB64808EF063F08095F0501869
:20071F00D2900557750E02750F0090D026C007C005120CF1D005D007D20CC292AE8E74FB49
:20073F005EF58E758A00758C00D28C0208E1755E00C212C007C0051215FCD005D007020864
:20075F00E1C007C0051215FCD005D0070208E1300403020872A201201401B3403CA2019264
:20077F0014200216D202200130758201C007C005121768D005D0070D801F20011CA200E4B9
:20079F0033FEBE0114BD0300500F0D758201C007C005121768D005D007200202D28330029E
:2007BF0002057ABD0300402EA200E433FEBE0126A201E433FEBE011EC007120D4B120D4C9E
:2007DF00E57804F578757A007D0075820CC005120D57D005D007A201E433FEBE0107201523
:2007FF00047F00804420010D20150A0FBF283AD2157F008034A201E433FEBE012CA200E4B3
:20081F0033FEBE0124101502801FC007C005120D4B120D4C758201121768E57804F57875B2
:20083F00820C120D64D005D007A200201301B350030208E1A2009213E433FEBE0102800375
:20085F000208E1758202C007C005121768D005D007806F30046CE55A455B600CE55AB55CA2
:20087F0007E55BB55D02800BC3742A955C7402955D504FE4F55AF55BF55CF55DC007C00568
:20089F00120DB3D005D007E54704F54824FC500DC007C005120F1BD005D0078022750E0038
:2008BF00750F2075100090002675F040C007C005121B29C2057548001215FCD005D00775EB
:2008DF004600C007C005120D53AC82AE83D005D007E558FA3395E0FB74022AFAE43BFBC359
:2008FF00EA9CEB64808EF063F08095F05047300939E54A702C200429300C26A200E433FE74
:20091F00BE0110758208C007C005120D64D005D007800E758207C007C005120D64D005D0EF
:20093F0007C20CC209756C05800BE56C24FA5005C20C756C00E54A7003020A3530040302F8
:20095F000A35200703020A35C007C005120D4B120D4CD005D007300C2EC007C005120D5359
:20097F00AC82AE83D005D007E558FA3395E0FB74022AFAE43BFBC3EA9CEB64808EF063F0D6
:20099F008095F05002C20C43A41075E101D2ACD204200908740AB56C1E300C1BD2907557FE
:2009BF000A750E02750F0090D026C007C005120CF1D005D007803C300C36E56C75F005A4AB
:2009DF00FCAEF0AA577B00C3EA9CEB64808EF063F08095F0501AD2900557750E02750F00C3
:2009FF0090D026C007C005120CF1D005D0078003755700C292E4F55CF55DAE8E74FB5EF5E3
:200A1F008E758A00758C00D28C75EC00AEB674BF5EF5B675870130050BC007C005120F1BC5
:200A3F00D005D007200403020B7A7401B55C06E4B55D028003020B7A300803020B7A055E8A
:200A5F0074FD255E5003020B6AD212D292200902C290C28C438E04750E64750F0090D026E0
:200A7F00C007C005120CF1D005D007300C0BAE6CBE0A005004EE04F56CE56D456E7019E5CD
:200A9F006C24FF5013AC65AE668C6D8E6EC007C00512188ED005D007C007C005120D53AC91
:200ABF0082AE83D005D007E558FA3395E0FBC3EA9CEB64808EF063F08095F05011C007C008
:200ADF0005120D53AC82AE83D005D0078C58C007C005120D4CD005D007200908740AB56C1E
:200AFF001E300C1BD29075570A750E02750F0090D026C007C005120CF1D005D0078037306D
:200B1F000C34E56C75F005A4FCAEF0AA577B00C3EA9CEB64808EF063F08095F05018D29049
:200B3F000557750E02750F0090D026C007C005120CF1D005D007D20CC292AE8E74FB5EF534
:200B5F008E758A00758C00D28C8010755E00C212C007C0051215FCD005D007200435E57A40
:200B7F0024EE5013757A007D00758200C007C005120D57D005D007C29075EC00758280C0E6
:200B9F0007C005121AA8121973D005D00775EC00020298750A01020298C0E0C0D075EC00A2
:200BBF00055CE4B55C02055DD0D0D0E03275EC0032C0E0C007C001C000C0D075D00075EC29
:200BDF00001099028002D20F309841E5467002F547C29885994974E02546402AE5472426A6
:200BFF00F8A649E5472426F98707BF54028005BF5A0ED208D205754600E54704F548800CCC
:200C1F00054605478006754600754700D0D0D000D001D007D0E03243F18EAFF174BE5FF53F
:200C3F00F143A408AFA474085FF5A44380EF43D4CF43F265AFF274755FF5F243A505AFA5AB
:200C5F0074055FF5A54390EEE5D575D5FF75E10075E34043C91043B28075EF0675A920C256
:200C7F00A8C2AA759810758DCBAF8E74F45FF58E438E08858D8BAF89740F5FF589438920D6
:200C9F00D28E43B810C2AC75D11875970975A70F75BB0475A70075BA00438901438E04D2CB
:200CBF00A9438E3075CABD75CB1075CCBD75CD1075C804D2CAD2AD2275D840AFD974BF5FAA
:200CDF00F5D953D9F175F90075FA0075EBFF43D94022AE82AF83C2ADAD0E8E037C007E0039
:200CFF00BD0002801D8B8A8F8CD28C75EC00AEB674BF5EF5B6758701E4F55CF55DC28C1DFB
:200D1F0080DED2AD22C28320020C750E01750F0090FE16120CF143F22043F180A2959200B5
:200D3F00A2879201AFF274DF5FF5F2222222856B82020D6490000022AF82C202EF60058FC9
:200D5F0082020D6422E582FFB55202800D20060A2010078F8212185380373012078F821249
:200D7F001853802D200603301027BF06028015BF0702800ABF08028005BF0D1080068F4A75
:200D9F00C206800DAE4B8F4B8E4C80058F82121885D20722C2AC75E100AFA474EF5FF5A480
:200DBF00D292C28C438E047401B55923E557701F20091CE56CFF24F5500ABF0D005005757E
:200DDF006C0A800BEF24FF5006EF14F56CC20C755900C204C208E4F55AF55BF55CF55D20B5
:200DFF000902C29022AF821099028000C20F755A32755B00EF24EF5003020F14EF240A833D
:200E1F00F582EF241583F583E47314DECED2DAD6E25559AA100C5DAEE6CA4B0F0E0E0E0EDD
:200E3F000E0E0E0E0E0F0F0E0E0E0E0E759957755A64755B00227599432275994F2275995F
:200E5F004CC20F200F0575EC0080F8C299E56BFF24FA4030EF2F2F900E7A73020EA3020E76
:200E7F00A0020E8C020E91020E9B020E967599468012759948800D75994D8008759950809B
:200E9F0003759944755A2A755B022275994722759945201107755A64755B002230115C200D
:200EBF000F0575EC0080F87599572275994122759946227599482275994D227599502275CE
:200EDF0099442275995222759953200F0575EC0080F8C299856099C20F200F0575EC008045
:200EFF00F8C299856199755A64755B00227599422275994922300403020DB322E4F57BF58D
:200F1F007CAC487D00C3E57B9CE57C9D40030215E475EC00E57B2426F98705BD590302100F
:200F3F00B9BD5A0280030215D90559E55924FC506A120DB3120D53AC82AD83C374709C747E
:200F5F007E8DF063F08095F0504EE56F4570700BAC65AD668C6F8D7012188E300C33AD6CA1
:200F7F00BD0D00502CED04F56C120D53AC82AD83E558FA3395E0FBC3EA9CEB64808DF06318
:200F9F00F08095F05012120D53AC82AD838C588007740DB56C02D2091215FC7402B5590278
:200FBF008003021095300903021095D292200902C290200C03755900C28C438E04750E641D
:200FDF00750F0090D026120CF1300C0BAD6CBD0A005004ED04F56CE56D456E7011E56C2411
:200FFF00FF500BAC65AD668C6D8D6E12188E120D53AC82AD83E558FA3395E0FBC3EA9CEBCA
:20101F0064808DF063F08095F05009120D53AC82AD838C58120D4C200908740AB56C13306D
:20103F000C10D290750E02750F0090D026120CF1802F300C2CE56C75F005A4FCADF0AA5765
:20105F007B00C3EA9CEB64808DF063F08095F05010D2900557750E02750F0090D026120C3E
:20107F00F1D20CC292AD8E74FB5DF58E758A00758C00D28C800E7402B55909300906120DCD
:20109F00B31215FC75EC00854A82120E04ADB674BF5DF5B67587010215D9300403120DB3F1
:2010BF00E57BFD042426F98704BC410050030215D9ED042426F98704BC590040030215D99B
:2010DF00ED042426F98704BC410050030215D9EC24A750030215D9EC24BFFC240A83F58205
:2010FF00EC241C83F583E473AC6E0AC185AEA6376AD92C56D9EDA5D9D97A0FB7D9D98547BE
:20111F00121213151414131113151515151411151515121515151414AA71AB72AC73AF745A
:20113F000ABA00090BBB00050CBC00010F8A718B728C738F74AF4ABF10028003BF0D07C046
:20115F0005121867D005301013C3E49553E49554E49555E495565002D203C210755E00C22B
:20117F001274032D2426F98707BF540280030215D9750E00750F2075100090002675F0403A
:20119F00121B290215D9AB71AC72AE73AF740BBB00090CBC00050EBE00010F8B718C728E6C
:2011BF00738F74854A521218677401B56206758201121768900001E4F09000027418F090CA
:2011DF000003E4F0A3F09000057410F0740EA3F0C206301013C3E49553E49554E49555E43F
:2011FF0095565002D203C210755E00C2120215D9AB71AC72AE73AF740BBB00090CBC00053B
:20121F000EBE00010F8B718C728E738F74854A52121867900001E4F09000027418F0900020
:20123F0003E4F0A3F09000057410F0740EA3F0C206301013C3E49553E49554E49555E49549
:20125F00565002D203C210755E00C2120215D9AB71AC72AE73AF740BBB00090CBC00050E61
:20127F00BE00010F8B718C728E738F74121867301013C3E49553E49554E49555E495565056
:20129F0002D203C210755E00C2120215D9AB71AC72AE73AF740BBB00090CBC00050EBE0009
:2012BF00010F8B718C728E738F74D20A121867900001E4F09000027418F0900003E4F0A317
:2012DF00F09000057410F0740EA3F0C206301013C3E49553E49554E49555E495565002D2A9
:2012FF0003C210755E00C2120215D9AE75AF760EBE00010F8E758F767408B54A08758205B8
:20131F00121768800B300E08758205121768D20D854A52121867301013C3E49553E495547F
:20133F00E49555E495565002D203C210755E00C212E560700774FFB56102800975820E126A
:20135F000D640215D91218670215D9AB71AC72AE73AF740BBB00090CBC00050EBE00010F96
:20137F008B718C728E738F741218671217B7755F0112188ED20B758209120D64101000755D
:20139F005E00C2120215D974022D2426F9E7FF24C6500B74022D2426F9E7FF24F9F77403A4
:2013BF002D2426F9E7FF24C6500B74032D2426F9E7FF24F9F774022D2426F9870753070FB5
:2013DF00EFC454F0FF74032D2426F98706740F5E4FF56074042D2426F9E7FF24C6500B7478
:2013FF00042D2426F9E7FF24F9F774052D2426F9E7FF24C6500B74052D2426F9E7FF24F960
:20141F00F774042D2426F9870753070FEFC454F0FF74052D2426F98706740F5E4FF56112D3
:20143F00188E1218670215D9AB71AC72AE73AF740BBB00090CBC00050EBE00010F8B718CE8
:20145F00728E738F741218671217B7755F007563C07564A87560007561FF10100012188E17
:20147F0075EF100215D974022D2426F582750E04C0051200DF12181DD005ED042426F98771
:20149F0007BF450280030215D91218670215D9756200C00512188ED00574032D2426F98795
:2014BF0007BF5402801074022D2426F98707BF540280030215D9121867750E00750F207538
:2014DF00100090002675F040121B290215D9756201C00512188ED00574032D2426F987079D
:2014FF00BF5402801074022D2426F98707BF540280030215D9121867750E00750F207510EF
:20151F000090002675F040121B290215D9D21174032D2426F98707BF540280030215D91219
:20153F001867750E00750F2075100090002675F040121B290215D9C21174032D2426F9877F
:20155F0007BF5476121867750E00750F2075100090002675F040121B29805FAC71AD72AE25
:20157F0073AF740CBC00090DBD00050EBE00010F8C718D728E738F741218671217B7755FF5
:20159F00007563C07564A87560007561FF10100012188E75EF108022755E00C2121215FCB1
:2015BF008018121867E560601174FFB56102800AE54A7006855282121853057BE4B57B0207
:2015DF00057C020F20750E00750F2075100090002675F040121B29C20575480022AE75AF65
:2015FF00760EBE00010F8E758F76E54AFF24EF500122EF240A83F582EF241583F583E4732D
:20161F006727F2001A0D5E418D6767675E406734DF17171617171717161617171717171735
:20163F001716300B012220123720093420102E20062BD206900005E0F5F0A3E045F060122F
:20165F009000017404F09000037484F07403A3F0800B900001E4F0900003F0A3F0C20722FC
:20167F00200901228F52121867C212D20722300B012220123D20093A7582051217682010D1
:20169F002E20062BD206900005E0F5F0A3E045F06012900001740CF0900003742CF07401B7
:2016BF00A3F0800B900001E4F0900003F0A3F0C20722200901228F52121867C212D20722FA
:2016DF0020120620090302186720090122121867C2122230120420090122121867756B0030
:2016FF0022301203300961121867756B0222301203300954121867756B032230120330094F
:20171F0047121867756B002230120330093A121867756B042230120330092D121867D20E65
:20173F0022300E06758205121768750E00750F0875100090004A75F040121B29D20D2275B8
:20175F00820512176812186722AF82200909E56C24FA5005300C02D2907E00C3EE9F503585
:20177F007D00D216C007C006C0051217E9D005D006D0070DBD0F0040E97D00C216C007C021
:20179F0006C0051217E9D005D006D0070DBDFF0040E90E80C6C29022200909E56C24FA5020
:2017BF0005300C02D2907E007F00D216C007C0061217E9D006D0070EBE00010FC3EE94E82B
:2017DF00EF940340E5D297C2902243F280A216E433FFBF0110C297750E01750F0090D02628
:2017FF00120CF1801120160ED297750E01750F0090D026120CF1AFF2747F5FF5F222AE82B4
:20181F00AF83EE4F7004C2038002D2038E638F6412188E856353856454E4F555F556E553E5
:20183F002553F553E55433F554E55533F555E55633F55622AF827E00EE244AF9E7600675BC
:20185F00EC000E80F3A707227F00EF244AF9EF04FE244AF88605A7058E07BF070040EBEF54
:20187F00244AF8760022AF82AE4A8F4A8E4B22A2AF9217C2AF200908AF6CBF0A07300C0487
:20189F00D2908020300C1DEF75F005A4FFAEF0AC577D00C3EC9FED64808EF063F08095F0BF
:2018BF005002D29075FF80AFD974BF5FF5D9438F0375B7A575B7F1901C00E4F0AF8F74FC88
:2018DF005FF58F7E007F1C7D00438F0175B7A575B7F1ED901B6793FC8E828F83F0A3AE823C
:2018FF00AF830DBD0E0040E17D00438F0175B7A575B7F1ED245FF987048E828F83ECF0A3CB
:20191F00AE82AF830DBD1B0040E0AF8F74FE5FF58F200902C29075EC007471B5260280038B
:20193F0043D940A21792AF22A2AF9218C2AF7E0E7F1C7D0075EC00ED245FF98E828F83E430
:20195F0093FCA3AE82AF83A7040DBD1B0040E5A21892AF220524E4B524020525AC24AD254E
:20197F007E007F00C374C09C74A89DE49E74808FF063F08095F0502FAE65AF660EBE00013E
:20199F000F8E658F667401B55F0DAE67AF680EBE00010F8E678F68E4F524F52520090874EB
:0819BF0001B55F0302188E223E
:161B6700303130313130323030303036303500180000100E000082
:2019C700AFA9E5AE700675AEA575AEF1750E08758205C007121A36750E07758206121A362A
:2019E700750E80758204121A3675A974750EC0758204121A36D0077D407E051DBDFF011E3F
:201A0700BD00F8BE00F5750EC0758204C007121A36D00775B5208FA9E5A930E7FB7508C0BA
:201A270022AF8274904FF5AC00000085AD8222AF8274104FF5AC850EAD22AC82AD83AEF07F
:201A4700FF8C0E8D0F8E108F1175AC14AF0874F75FF5AD0075AC18850EAD00850FAD008575
:201A670010AD008511AD0075AC148508AD22AF828F065306FCAD08EE4DF508EF4508F50E87
:061A8700758204021A360C
:201A8D0075B520750900750A00750B00750C00750D0022AF82740F5F420922AF82A2AFE467
:201AAD0033FEC2AFADA975A914ACB674BF5CF5B675E501E5A930E7FBE5094FF5B58DA943F8
:201ACD00B640AFB575B520758204C007C006121A28AD82D006D007ED30E20BEF20E207E5B6
:201AED00B5420775B520EF20E204ED30E203750A01EF20E304ED30E503750B01EF30E1039B
:1C1B0D00750D01EF30E003750C01EE24FF92AFEF30E4087FFFEF14FEFF70FA224E
:06006000E478FFF6D8FD74
:1F1B2900AC82AD83AE0FAF10BE0004EF600C1F0FE50E121B48A3DEFADFF88C828D83227E
:20003E007908E94400601B7A01901B75780175A000E493F2A308B8000205A0D9F4DAF275CF
:02005E00A0FF01
:1B1B480020F71130F6138883A88220F509F6A8837583002280FEF280F5F0229C
:200066007800E84400600A790175A000E4F309D8FC7800E84400600C7900900001E4F0A398
:04008600D8FCD9FACF
:0D00310075817C121B63E582600302002EC6
:041B63007582002265
:00000001FF
